:100000000C9476000C9497000C9497000C94970035
:100010000C9497000C9497000C9497000C94970004
:100020000C9497000C9497000C9497000C949700F4
:100030000C9497000C9497000C9497000C949700E4
:100040000C9497000C9497000C9497000C949700D4
:100050000C9497000C94EB010C9497000C9497006F
:100060000C9497000C9497000C9497000C949700B4
:100070000C9497000C9497000C9497000C949700A4
:100080000C9497000C9497000C9497000C94970094
:100090000C9497000C9497000C9497000C94970084
:1000A0000C9497000C9497000C9497000C94970074
:1000B0000C9497000C9497000C9497000C94970064
:1000C0000C9497000C9497000C9497000C94970054
:1000D0000C9497000C9497000C9497000C94970044
:1000E0000C9497000C94F6000C94F30011241FBE9E
:1000F000CFEFD1E2DEBFCDBF00E00CBF12E0A0E049
:10010000B2E0E6E8F4E000E00BBF02C007900D9219
:10011000A230B107D9F722E0A2E0B2E001C01D92FF
:10012000AB33B207E1F70E94DA010C9441020C9460
:1001300000002F923F924F925F926F927F928F9228
:100140009F92AF92BF92CF92DF92EF92FF920F9366
:100150001F93CF93DF937091060250913A02F89467
:10016000AEB79DB778942091170230913902409133
:100170003802232B242B2095503821F451E070E0D5
:100180000C94C400550F7395622F6523603029F4D9
:100190004038A1F30C94C200E6CFE8E1F2E0872FEB
:1001A000880F880F83958395E80FF11DF89450937D
:1001B0003A02709306029191A081AEBF9DBF7894E0
:1001C000DF91CF911F910F91FF90EF90DF90CF9033
:1001D000BF90AF909F908F907F906F905F904F9067
:1001E0003F902F9008950E949900FDCF0E949900A2
:1001F000FDCF8EEF809317021092390210923802D1
:1002000081E080933A02109206021092020210924C
:10021000030210920402109205028FEF91E2909374
:1002200019028093180290931B0280931A028EEF9A
:1002300090E290931D0280931C0290931F02809382
:100240001E028DEF9FE190932102809320029093F4
:100250002302809322028CEF9EE1909325028093EB
:10026000240290932702809326028BEF9DE19093C6
:1002700029028093280290932B0280932A028AEF0E
:100280009CE190932D0280932C0290932F028093F7
:100290002E0289EF9BE1909331028093300290937C
:1002A00033028093320288EF9AE190933502809373
:1002B00034029093370280933602E7E0F2E0119225
:1002C000119282E0E731F807D1F78EEB8093FF209F
:1002D0008093FE1F8093FD1E8093FC1D8093FB1C6A
:1002E0008093FA1B8093F91A8093F819089540912E
:1002F0000602E42FF0E021E030E001C0220F4A9531
:10030000EAF730911702322B30931702EE0FFF1FDE
:10031000E95FFD4F918380830C94990008950895BF
:100320000895089560E070E0CB010895CF93DF93C6
:10033000382F292FF89484E0689FF0011124E85E9B
:10034000FD4FA281B381832F3C93A281B38111978A
:100350002C93C281D3812297AA2797FDA095BA2F0B
:10036000B883828193814597938382837894DF91C8
:10037000CF910895582FCB016091170221E030E012
:10038000052E01C0220F0A94EAF7411102C0262B64
:1003900002C02095262320931702652F0C94960106
:1003A00082E084BD80936E008AEF87BD83E085BDC7
:1003B000789408950E94D0010E94F90040E063EF14
:1003C00070E080E00E94BA0140E066EF70E081E0FA
:1003D0000E94BA01FFCF1F920F920FB60F92112405
:1003E0000BB60F922F933F934F935F936F938F931F
:1003F0009F93EF93FF9380910002909101020197E8
:10040000909301028093000280910002909101027A
:100410001816190634F084EF91E09093010280934E
:10042000000260911702E7E0F2E080E090E041E036
:1004300050E0208131812115310529F02150310909
:100440003183208307C09A01082E01C0220F0A942D
:10045000EAF76227019632968830910551F760934A
:100460001702FF91EF919F918F916F915F914F9143
:100470003F912F910F900BBE0F900FBE0F901F90CA
:060480001895F894FFCF6F
:02048600F4017F
:00000001FF
