:100000000C9476000C948A000C948A000C948A005C
:100010000C948A000C948A000C948A000C948A0038
:100020000C948A000C948A000C948A000C948A0028
:100030000C948A000C948A000C948A000C948A0018
:100040000C948A000C948A000C948A000C948A0008
:100050000C948A000C948A000C948A000C948A00F8
:100060000C948A000C948A000C948A000C948A00E8
:100070000C948A000C948A000C948A000C948A00D8
:100080000C948A000C948A000C948A000C948A00C8
:100090000C948A000C948A000C948A000C948A00B8
:1000A0000C948A000C948A000C948A000C948A00A8
:1000B0000C948A000C948A000C948A000C948A0098
:1000C0000C948A000C948A000C948A000C948A0088
:1000D0000C948A000C948A000C948A000C948A0078
:1000E0000C948A000C94E7000C94E60011241FBEC7
:1000F000CFEFD1E2DEBFCDBF00E00CBF22E0A0E039
:10010000B2E001C01D92A933B207E1F70E94A40139
:100110000C94B3010C9400002F923F924F925F9287
:100120006F927F928F929F92AF92BF92CF92DF9207
:10013000EF92FF920F931F93CF93DF93709104027E
:1001400050913802F894AEB79DB77894209115027B
:100150003091370240913602232B242B20955038C2
:1001600021F451E070E00C94B700550F7395622FA5
:100170006523603029F44038A1F30C94B500E6CF34
:10018000E6E1F2E0872F880F880F83958395E80FCB
:10019000F11DF89450933802709304029191A0815C
:1001A000AEBF9DBF7894DF91CF911F910F91FF90CB
:1001B000EF90DF90CF90BF90AF909F908F907F9007
:1001C0006F905F904F903F902F90089508950895FD
:1001D0008EEF80931502109237021092360281E062
:1001E00080933802109204021092000210920102D1
:1001F00010920202109203028FEF91E29093170285
:100200008093160290931902809318028EEF90E269
:1002100090931B0280931A0290931D0280931C02FC
:100220008DEF9FE190931F0280931E029093210215
:10023000809320028CEF9EE1909323028093220210
:1002400090932502809324028BEF9DE190932702E7
:100250008093260290932902809328028AEF9CE1E2
:1002600090932B0280932A0290932D0280932C026C
:1002700089EF9BE190932F0280932E02909331029D
:100280008093300288EF9AE1909333028093320298
:100290009093350280933402E5E0F2E011921192DE
:1002A00082E0E531F807D1F78EEB8093FF20809351
:1002B000FE1F8093FD1E8093FC1D8093FB1C80938A
:1002C000FA1B8093F91A8093F819089508950895F8
:1002D00008950895089560E070E0CB010895CF93EC
:1002E000DF9324E0629FF0011124EA5EFD4FA281BA
:1002F000B3818C93A281B38111979C93C281D381E6
:100300002297AA2797FDA095BA2FB883828193815F
:10031000459793838283DF91CF910895582FCB0126
:100320006091150221E030E0052E01C0220F0A94F1
:10033000EAF7411102C0262B02C020952623209304
:100340001502652F0C946F010E94E80040E066EEF4
:1003500070E080E00E948E0140E067EE70E081E096
:0A0360000E948E01FFCFF894FFCF3A
:00000001FF
