:100000000C94DE000C94FF000C94FF000C94FF0095
:100010000C94FF000C94FF000C94FF000C94FF0064
:100020000C94FF000C94FF000C94FF000C94FF0054
:100030000C94FF000C94FF000C94FF000C94FF0044
:100040000C94FF000C94FF000C94FF000C94FF0034
:100050000C94FF000C9495020C94FF000C94FF008C
:100060000C94FF000C94FF000C94FF000C94FF0014
:100070000C94FF000C94FF000C94FF000C94FF0004
:100080000C94FF000C94FF000C94FF000C94FF00F4
:100090000C94FF000C94FF000C94FF000C94FF00E4
:1000A0000C94FF000C94FF000C94FF000C94FF00D4
:1000B0000C94FF000C94FF000C94FF000C94FF00C4
:1000C0000C94FF000C94FF000C94FF000C94FF00B4
:1000D0000C94FF000C94FF000C94FF000C94FF00A4
:1000E0000C94FF0079037C037E03A803A803A803F4
:1000F000A803A8038003820384038603A803A8033C
:10010000A803A803A803A803A803A803A803A80397
:10011000A803A803A803A803A803A803A803A80387
:10012000A803A80388038A038C038E03A803A803EB
:10013000A803A8039003920394039603A803A803BB
:10014000A803A80398039A039C039E03A803A8038B
:10015000A803A803A003A203A403A6030C9484038A
:100160000C947C030C94A0030C9498030C949203BD
:100170000C947E030C948C030C9496030C94A403AF
:100180000C948A030C948E030C9488030C948603BD
:100190000C9479030C9490030C94A8030C949C0386
:1001A0000C9494030C9482030C9480030C949A0393
:1001B0000C94A6030C94A2030C949E0311241FBE5E
:1001C000CFEFD1E2DEBFCDBF00E00CBF12E0A0E078
:1001D000B2E0EEE9F7E000E00BBF02C007900D923D
:1001E000A230B107D9F722E0A2E0B2E001C01D922F
:1001F000AB33B207E1F70E945B010C94CD030C9482
:1002000000002F923F924F925F926F927F928F9257
:100210009F92AF92BF92CF92DF92EF92FF920F9395
:100220001F93CF93DF937091060250913A02F89496
:10023000AEB79DB778942091170230913902409162
:100240003802232B242B2095503821F451E070E004
:100250000C942C01550F7395622F6523603029F49F
:100260004038A1F30C942A01E6CFE8E1F2E0872FB1
:10027000880F880F83958395E80FF11DF8945093AC
:100280003A02709306029191A081AEBF9DBF78940F
:10029000DF91CF911F910F91FF90EF90DF90CF9062
:1002A000BF90AF909F908F907F906F905F904F9096
:1002B0003F902F90089543E050E060E07BE480E0C1
:1002C00090E00E94EE020E94BB038823E1F380913C
:1002D000C6000E94C203F7CF8EEF809317021092E0
:1002E00039021092380281E080933A02109206029D
:1002F0001092020210920302109204021092050260
:100300008FEF91E2909319028093180290931B0251
:1003100080931A028EEF90E290931D0280931C024C
:1003200090931F0280931E028DEF9FE19093210214
:100330008093200290932302809322028CEF9EE10F
:1003400090932502809324029093270280932602A3
:100350008BEF9DE1909329028093280290932B02CA
:1003600080932A028AEF9CE190932D0280932C02C5
:1003700090932F0280932E0289EF9BE1909331029C
:1003800080933002909333028093320288EF9AE197
:100390009093350280933402909337028093360213
:1003A000E7E0F2E01192119282E0E731F807D1F72D
:1003B0008EEB8093FF208093FE1F8093FD1E809321
:1003C000FC1D8093FB1C8093FA1B8093F91A809389
:1003D000F81908955FB7F89440910602E42FF0E011
:1003E00021E030E001C0220F4A95EAF73091170270
:1003F000322B30931702EE0FFF1FE95FFD4F918301
:1004000080835FBF0C9401019FB7F89421E030E036
:1004100001C0220F8A95EAF780913902822B8093DE
:1004200039029FBF08959FB7F89421E030E001C0E2
:10043000220F8A95EAF720958091390282238093D2
:1004400039029FBF08959FB7F89421E030E001C0C2
:10045000220F8A95EAF780911702822B8093170268
:100460009FBF08959FB7F89421E030E001C0220FAC
:100470008A95EAF7209580911702822380931702CC
:100480009FBF08956091020270910302809104025F
:100490009091050208950E940101FDCF0E94010183
:1004A000FDCFCF93DF93382F292FF89484E0689FF6
:1004B000F0011124E85EFD4FA281B381832F3C93AC
:1004C000A281B38111972C93C281D3812297AA274D
:1004D00097FDA095BA2FB883828193814597938326
:1004E00082837894DF91CF910895582FCB0160914A
:1004F000170221E030E0052E01C0220F0A94EAF72E
:10050000411102C0262B02C02095262320931702FA
:10051000652F0C94510282E084BD80936E008AEFB7
:1005200087BD83E085BD789408951F920F920FB622
:100530000F9211240BB60F922F933F934F935F931B
:100540006F938F939F93AF93BF93EF93FF9380919C
:10055000020290910302A0910402B091050201965B
:10056000A11DB11D8093020290930302A093040287
:10057000B093050260911702E7E0F2E080E090E0BE
:1005800041E050E0208131812115310571F0215089
:10059000310931832083232B41F49A01082E01C0B5
:1005A000220F0A94EAF7209562230196329688304A
:1005B000910541F760931702FF91EF91BF91AF91C1
:1005C0009F918F916F915F914F913F912F910F90DC
:1005D0000BBE0F900FBE0F901F901895603820E74C
:1005E00072078105910509F45BC004F5603825E2C6
:1005F00072078105910509F44AC064F4603629E068
:10060000720781059105E9F1603C72418105910510
:10061000D9F10895603428E3720781059105D1F17D
:1006200061157B4481059105C1F1089561152CE2A6
:10063000720721E082079105E1F164F4611526E972
:1006400072078105910579F16115714E810591055A
:1006500069F10895611524E8720723E08207910586
:1006600099F1603920ED720723E08207910561F16D
:100670006115724C8140910509F07CC080E190E0E9
:100680001BC080E493E018C08FEC90E01FC087E6A9
:1006900090E01CC084E490E019C083E390E016C0B1
:1006A00084E490E009C089E190E010C080E190E02E
:1006B0000DC08CE090E00AC09093C5008093C40008
:1006C0008091C000826009C083E090E09093C500F3
:1006D0008093C4008091C0008D7F8093C000809182
:1006E000C2004C335105A0F5FA01EE58FF4F0C94AF
:1006F000C7031092C2002FC081602BC0826029C046
:10070000886027C0896025C08A6023C08E6021C0B0
:1007100080641FC081641DC082641BC0866419C0D0
:10072000886417C0896415C08A6413C08E6411C0C0
:10073000806C0FC0816C0DC0826C0BC0866C09C0D0
:10074000886C07C0896C05C08A6C03C08E6C01C0C0
:1007500086708093C2008091C4009091C5009093F0
:10076000C5008091C4009091C5008093C40088E1C9
:100770008093C10008958091C00087FFFCCF8091D5
:10078000C60008959091C0008093C6000895EE0FB2
:0E079000FF1F0590F491E02D1994F894FFCF0F
:02079E00F40164
:00000001FF
