:100000000C9474000C9488000C9488000C94880064
:100010000C9488000C9488000C9488000C94880040
:100020000C9488000C9488000C9488000C94880030
:100030000C9488000C9488000C9488000C94880020
:100040000C9488000C9488000C9488000C94880010
:100050000C9488000C9488000C9488000C94880000
:100060000C9488000C9488000C9488000C948800F0
:100070000C9488000C9488000C9488000C948800E0
:100080000C9488000C9488000C9488000C948800D0
:100090000C9488000C9488000C9488000C948800C0
:1000A0000C9488000C9488000C9488000C948800B0
:1000B0000C9488000C9488000C9488000C948800A0
:1000C0000C9488000C9488000C9488000C94880090
:1000D0000C9488000C9488000C9488000C94880080
:1000E0000C9488000C948A0011241FBECFEFD1E23B
:1000F000DEBFCDBF00E00CBF22E0A0E0B2E001C057
:100100001D92A933B207E1F70E9475010C947E019C
:100110000C94000008958EEF809315021092370220
:100120001092360281E080933802109204021092FD
:1001300000021092010210920202109203028FEF4D
:1001400091E2909317028093160290931902809384
:1001500018028EEF90E290931B0280931A02909304
:100160001D0280931C028DEF9FE190931F028093EC
:100170001E0290932102809320028CEF9EE19093C7
:1001800023028093220290932502809324028BEF16
:100190009DE19093270280932602909329028093F9
:1001A00028028AEF9CE190932B0280932A0290937D
:1001B0002D0280932C0289EF9BE190932F02809374
:1001C0002E02909331028093300288EF9AE190934F
:1001D0003302809332029093350280933402E5E03B
:1001E000F2E01192119282E0E531F807D1F78EEB3F
:1001F0008093FF208093FE1F8093FD1E8093FC1D43
:100200008093FB1C8093FA1B8093F91A8093F81952
:10021000089508950895089508950895089560E053
:1002200070E0CB0108950895F894813022E09207A0
:1002300000F18F3FEFEF9E07E1F0EDB7FEB72081B1
:10024000DC0117972C93218111962C932281119612
:100250002C93238111962C93248111962C93258124
:1002600011962C93268111962C932781FC012083D3
:1002700002C080E090E078940895CF93DF93DC0192
:10028000CDB7DEB78C918883CDB7DEB711968C9150
:10029000119721978883CDB7DEB712968C9122975C
:1002A000888384E0689FF0011124EA5EFD4F82811B
:1002B0009381459793838283DF91CF910895582F3F
:1002C000CB016091150221E030E0052E01C0220F24
:1002D0000A94EAF7411102C0262B02C0209526237A
:1002E00020931502652F0C943D010E948B0040E085
:1002F0006AE870E080E00E945F01FFCFF894FFCFD2
:00000001FF
