:100000000C9472000C9486000C9486000C9486006C
:100010000C9486000C9486000C9486000C94860048
:100020000C9486000C9486000C9486000C94860038
:100030000C9486000C9486000C9486000C94860028
:100040000C9486000C9486000C9486000C94860018
:100050000C9486000C9486000C9486000C94860008
:100060000C9486000C9486000C9486000C948600F8
:100070000C9486000C9486000C9486000C948600E8
:100080000C9486000C9486000C9486000C948600D8
:100090000C9486000C9486000C9486000C948600C8
:1000A0000C9486000C9486000C9486000C948600B8
:1000B0000C9486000C9486000C9486000C948600A8
:1000C0000C9486000C9486000C9486000C94860098
:1000D0000C9486000C9486000C9486000C94860088
:1000E0000C94860011241FBECFEFD1E2DEBFCDBF3E
:1000F00000E00CBF22E0A0E0B2E001C01D92A931F7
:10010000B207E1F70E94FC000C9407010C94000078
:1001100021E030E001C0220F8A95EAF780911502B4
:1001200082278093150208950895089508950895EB
:100130000895089560E070E0CB0108950895089552
:10014000F894813022E0920700F18F3FEFEF9E0795
:10015000E1F0EDB7FEB72081DC0117972C932181E8
:1001600011962C93228111962C93238111962C9316
:10017000248111962C93258111962C93268111961A
:100180002C932781FC01208302C080E090E07894CA
:1001900008958EEF809315021092170210921602A6
:1001A00081E08093180210920402109200021092D3
:1001B000010210920202109203028DB79EB7E5E091
:1001C000F2E01192119282E0E531F807D1F78EEB5F
:1001D0008093FF208093FE1F8093FD1E8093FC1D63
:1001E0008093FB1C8093FA1B8093F91A8093F81973
:1001F0008FEF91E20C94A0000E94C900809115023B
:1002000091E089278093150280E090E00895F894AA
:02021000FFCF1E
:00000001FF
