:100000000C9472000C9486000C9486000C9486006C
:100010000C9486000C9486000C9486000C94860048
:100020000C9486000C9486000C9486000C94860038
:100030000C9486000C9486000C9486000C94860028
:100040000C9486000C9486000C9486000C94860018
:100050000C9486000C9486000C9486000C94860008
:100060000C9486000C9486000C9486000C948600F8
:100070000C9486000C9486000C9486000C948600E8
:100080000C9486000C9486000C9486000C948600D8
:100090000C9486000C9486000C9486000C948600C8
:1000A0000C9486000C9486000C9486000C948600B8
:1000B0000C9486000C9486000C9486000C948600A8
:1000C0000C9486000C9486000C9486000C94860098
:1000D0000C9486000C9486000C9486000C94860088
:1000E0000C94860011241FBECFEFD1E2DEBFCDBF3E
:1000F00000E00CBF22E0A0E0B2E001C01D92A831F8
:10010000B207E1F70E94E5000C94EA000C940000AD
:10011000089508950895089508950895089560E054
:1001200070E0CB010895FC01F894E13082E0F8071B
:1001300030F1EF3F8FEFF80711F1ADB7BEB7FEBF5B
:10014000EDBF8C91808311968C91119781831296CB
:100150008C911297828313968C91139783831496B4
:100160008C911497848315968C9115978583169698
:100170008C911697868317968C91878302C0E0E056
:10018000F0E07894CF0108958EEF809314021092DE
:1001900016021092150281E080931702109200025D
:1001A000109201021092020210920302E4E0F2E0C7
:1001B0001192119282E0E431F807D1F78EEB80932F
:1001C000FF218EEF91E20C9493000E94C40080E026
:0801D00090E00895F894FFCFC0
:00000001FF
