:100000000C9472000C9486000C9486000C9486006C
:100010000C9486000C9486000C9486000C94860048
:100020000C9486000C9486000C9486000C94860038
:100030000C9486000C9486000C9486000C94860028
:100040000C9486000C9486000C9486000C94860018
:100050000C9486000C9486000C9486000C94860008
:100060000C9486000C9486000C9486000C948600F8
:100070000C9486000C9486000C9486000C948600E8
:100080000C9486000C9486000C9486000C948600D8
:100090000C9486000C9486000C9486000C948600C8
:1000A0000C9486000C9486000C9486000C948600B8
:1000B0000C9486000C9486000C9486000C948600A8
:1000C0000C9486000C9486000C9486000C94860098
:1000D0000C9486000C9486000C9486000C94860088
:1000E0000C94860011241FBECFEFD1E2DEBFCDBF3E
:1000F00000E00CBF22E0A0E0B2E001C01D92A831F8
:10010000B207E1F70E94DD000C94E2000C940000BD
:10011000089508950895089508950895089560E054
:1001200070E0CB010895F894813022E0920700F14D
:100130008F3FEFEF9E07E1F0EDB7FEB72081DC01C6
:1001400017972C93218111962C93228111962C9331
:10015000238111962C93248111962C93258111963D
:100160002C93268111962C932781FC01208302C0B9
:1001700080E090E0789408958EEF809314021092BE
:1001800016021092150281E080931702109200026D
:10019000109201021092020210920302E4E0F2E0D7
:1001A0001192119282E0E431F807D1F78EEB80933F
:1001B000FF208FEF91E20C9493000E94BC0080E03E
:0801C00090E00895F894FFCFD0
:00000001FF
